{
  "contractName": "NftMarket",
  "abi": [
    {
      "inputs": [],
      "stateMutability": "nonpayable",
      "type": "constructor"
    },
    {
      "anonymous": false,
      "inputs": [
        {
          "indexed": true,
          "internalType": "address",
          "name": "owner",
          "type": "address"
        },
        {
          "indexed": true,
          "internalType": "address",
          "name": "approved",
          "type": "address"
        },
        {
          "indexed": true,
          "internalType": "uint256",
          "name": "tokenId",
          "type": "uint256"
        }
      ],
      "name": "Approval",
      "type": "event"
    },
    {
      "anonymous": false,
      "inputs": [
        {
          "indexed": true,
          "internalType": "address",
          "name": "owner",
          "type": "address"
        },
        {
          "indexed": true,
          "internalType": "address",
          "name": "operator",
          "type": "address"
        },
        {
          "indexed": false,
          "internalType": "bool",
          "name": "approved",
          "type": "bool"
        }
      ],
      "name": "ApprovalForAll",
      "type": "event"
    },
    {
      "anonymous": false,
      "inputs": [
        {
          "indexed": false,
          "internalType": "uint256",
          "name": "tokenId",
          "type": "uint256"
        },
        {
          "indexed": false,
          "internalType": "uint256",
          "name": "price",
          "type": "uint256"
        },
        {
          "indexed": false,
          "internalType": "address",
          "name": "creator",
          "type": "address"
        },
        {
          "indexed": false,
          "internalType": "bool",
          "name": "isListed",
          "type": "bool"
        }
      ],
      "name": "NFTItemCreated",
      "type": "event"
    },
    {
      "anonymous": false,
      "inputs": [
        {
          "indexed": true,
          "internalType": "address",
          "name": "previousOwner",
          "type": "address"
        },
        {
          "indexed": true,
          "internalType": "address",
          "name": "newOwner",
          "type": "address"
        }
      ],
      "name": "OwnershipTransferred",
      "type": "event"
    },
    {
      "anonymous": false,
      "inputs": [
        {
          "indexed": true,
          "internalType": "address",
          "name": "from",
          "type": "address"
        },
        {
          "indexed": true,
          "internalType": "address",
          "name": "to",
          "type": "address"
        },
        {
          "indexed": true,
          "internalType": "uint256",
          "name": "tokenId",
          "type": "uint256"
        }
      ],
      "name": "Transfer",
      "type": "event"
    },
    {
      "inputs": [
        {
          "internalType": "address",
          "name": "to",
          "type": "address"
        },
        {
          "internalType": "uint256",
          "name": "tokenId",
          "type": "uint256"
        }
      ],
      "name": "approve",
      "outputs": [],
      "stateMutability": "nonpayable",
      "type": "function"
    },
    {
      "inputs": [
        {
          "internalType": "address",
          "name": "owner",
          "type": "address"
        }
      ],
      "name": "balanceOf",
      "outputs": [
        {
          "internalType": "uint256",
          "name": "",
          "type": "uint256"
        }
      ],
      "stateMutability": "view",
      "type": "function",
      "constant": true
    },
    {
      "inputs": [
        {
          "internalType": "uint256",
          "name": "tokenId",
          "type": "uint256"
        }
      ],
      "name": "getApproved",
      "outputs": [
        {
          "internalType": "address",
          "name": "",
          "type": "address"
        }
      ],
      "stateMutability": "view",
      "type": "function",
      "constant": true
    },
    {
      "inputs": [
        {
          "internalType": "address",
          "name": "owner",
          "type": "address"
        },
        {
          "internalType": "address",
          "name": "operator",
          "type": "address"
        }
      ],
      "name": "isApprovedForAll",
      "outputs": [
        {
          "internalType": "bool",
          "name": "",
          "type": "bool"
        }
      ],
      "stateMutability": "view",
      "type": "function",
      "constant": true
    },
    {
      "inputs": [],
      "name": "listingPrice",
      "outputs": [
        {
          "internalType": "uint256",
          "name": "",
          "type": "uint256"
        }
      ],
      "stateMutability": "view",
      "type": "function",
      "constant": true
    },
    {
      "inputs": [],
      "name": "name",
      "outputs": [
        {
          "internalType": "string",
          "name": "",
          "type": "string"
        }
      ],
      "stateMutability": "view",
      "type": "function",
      "constant": true
    },
    {
      "inputs": [],
      "name": "owner",
      "outputs": [
        {
          "internalType": "address",
          "name": "",
          "type": "address"
        }
      ],
      "stateMutability": "view",
      "type": "function",
      "constant": true
    },
    {
      "inputs": [
        {
          "internalType": "uint256",
          "name": "tokenId",
          "type": "uint256"
        }
      ],
      "name": "ownerOf",
      "outputs": [
        {
          "internalType": "address",
          "name": "",
          "type": "address"
        }
      ],
      "stateMutability": "view",
      "type": "function",
      "constant": true
    },
    {
      "inputs": [],
      "name": "renounceOwnership",
      "outputs": [],
      "stateMutability": "nonpayable",
      "type": "function"
    },
    {
      "inputs": [
        {
          "internalType": "address",
          "name": "from",
          "type": "address"
        },
        {
          "internalType": "address",
          "name": "to",
          "type": "address"
        },
        {
          "internalType": "uint256",
          "name": "tokenId",
          "type": "uint256"
        }
      ],
      "name": "safeTransferFrom",
      "outputs": [],
      "stateMutability": "nonpayable",
      "type": "function"
    },
    {
      "inputs": [
        {
          "internalType": "address",
          "name": "from",
          "type": "address"
        },
        {
          "internalType": "address",
          "name": "to",
          "type": "address"
        },
        {
          "internalType": "uint256",
          "name": "tokenId",
          "type": "uint256"
        },
        {
          "internalType": "bytes",
          "name": "data",
          "type": "bytes"
        }
      ],
      "name": "safeTransferFrom",
      "outputs": [],
      "stateMutability": "nonpayable",
      "type": "function"
    },
    {
      "inputs": [
        {
          "internalType": "address",
          "name": "operator",
          "type": "address"
        },
        {
          "internalType": "bool",
          "name": "approved",
          "type": "bool"
        }
      ],
      "name": "setApprovalForAll",
      "outputs": [],
      "stateMutability": "nonpayable",
      "type": "function"
    },
    {
      "inputs": [
        {
          "internalType": "bytes4",
          "name": "interfaceId",
          "type": "bytes4"
        }
      ],
      "name": "supportsInterface",
      "outputs": [
        {
          "internalType": "bool",
          "name": "",
          "type": "bool"
        }
      ],
      "stateMutability": "view",
      "type": "function",
      "constant": true
    },
    {
      "inputs": [],
      "name": "symbol",
      "outputs": [
        {
          "internalType": "string",
          "name": "",
          "type": "string"
        }
      ],
      "stateMutability": "view",
      "type": "function",
      "constant": true
    },
    {
      "inputs": [
        {
          "internalType": "uint256",
          "name": "tokenId",
          "type": "uint256"
        }
      ],
      "name": "tokenURI",
      "outputs": [
        {
          "internalType": "string",
          "name": "",
          "type": "string"
        }
      ],
      "stateMutability": "view",
      "type": "function",
      "constant": true
    },
    {
      "inputs": [
        {
          "internalType": "address",
          "name": "from",
          "type": "address"
        },
        {
          "internalType": "address",
          "name": "to",
          "type": "address"
        },
        {
          "internalType": "uint256",
          "name": "tokenId",
          "type": "uint256"
        }
      ],
      "name": "transferFrom",
      "outputs": [],
      "stateMutability": "nonpayable",
      "type": "function"
    },
    {
      "inputs": [
        {
          "internalType": "address",
          "name": "newOwner",
          "type": "address"
        }
      ],
      "name": "transferOwnership",
      "outputs": [],
      "stateMutability": "nonpayable",
      "type": "function"
    },
    {
      "inputs": [
        {
          "internalType": "uint256",
          "name": "newPrice",
          "type": "uint256"
        }
      ],
      "name": "setListingPrice",
      "outputs": [],
      "stateMutability": "nonpayable",
      "type": "function"
    },
    {
      "inputs": [
        {
          "internalType": "uint256",
          "name": "tokenId",
          "type": "uint256"
        }
      ],
      "name": "getNFTItem",
      "outputs": [
        {
          "components": [
            {
              "internalType": "uint256",
              "name": "tokenId",
              "type": "uint256"
            },
            {
              "internalType": "uint256",
              "name": "price",
              "type": "uint256"
            },
            {
              "internalType": "address",
              "name": "creator",
              "type": "address"
            },
            {
              "internalType": "bool",
              "name": "isListed",
              "type": "bool"
            }
          ],
          "internalType": "struct NftMarket.NFTItem",
          "name": "",
          "type": "tuple"
        }
      ],
      "stateMutability": "view",
      "type": "function",
      "constant": true
    },
    {
      "inputs": [],
      "name": "listedItemsCount",
      "outputs": [
        {
          "internalType": "uint256",
          "name": "",
          "type": "uint256"
        }
      ],
      "stateMutability": "view",
      "type": "function",
      "constant": true
    },
    {
      "inputs": [],
      "name": "totalSupply",
      "outputs": [
        {
          "internalType": "uint256",
          "name": "",
          "type": "uint256"
        }
      ],
      "stateMutability": "view",
      "type": "function",
      "constant": true
    },
    {
      "inputs": [
        {
          "internalType": "uint256",
          "name": "index",
          "type": "uint256"
        }
      ],
      "name": "tokenByIndex",
      "outputs": [
        {
          "internalType": "uint256",
          "name": "",
          "type": "uint256"
        }
      ],
      "stateMutability": "view",
      "type": "function",
      "constant": true
    },
    {
      "inputs": [
        {
          "internalType": "address",
          "name": "owner",
          "type": "address"
        },
        {
          "internalType": "uint256",
          "name": "index",
          "type": "uint256"
        }
      ],
      "name": "tokenOfOwnerByIndex",
      "outputs": [
        {
          "internalType": "uint256",
          "name": "",
          "type": "uint256"
        }
      ],
      "stateMutability": "view",
      "type": "function",
      "constant": true
    },
    {
      "inputs": [
        {
          "internalType": "string",
          "name": "tokenURI",
          "type": "string"
        }
      ],
      "name": "tokenURIExists",
      "outputs": [
        {
          "internalType": "bool",
          "name": "",
          "type": "bool"
        }
      ],
      "stateMutability": "view",
      "type": "function",
      "constant": true
    },
    {
      "inputs": [
        {
          "internalType": "uint256",
          "name": "tokenId",
          "type": "uint256"
        }
      ],
      "name": "burnToken",
      "outputs": [],
      "stateMutability": "nonpayable",
      "type": "function"
    },
    {
      "inputs": [],
      "name": "getAllNftsOnSale",
      "outputs": [
        {
          "components": [
            {
              "internalType": "uint256",
              "name": "tokenId",
              "type": "uint256"
            },
            {
              "internalType": "uint256",
              "name": "price",
              "type": "uint256"
            },
            {
              "internalType": "address",
              "name": "creator",
              "type": "address"
            },
            {
              "internalType": "bool",
              "name": "isListed",
              "type": "bool"
            }
          ],
          "internalType": "struct NftMarket.NFTItem[]",
          "name": "",
          "type": "tuple[]"
        }
      ],
      "stateMutability": "view",
      "type": "function",
      "constant": true
    },
    {
      "inputs": [],
      "name": "getOwnedNfts",
      "outputs": [
        {
          "components": [
            {
              "internalType": "uint256",
              "name": "tokenId",
              "type": "uint256"
            },
            {
              "internalType": "uint256",
              "name": "price",
              "type": "uint256"
            },
            {
              "internalType": "address",
              "name": "creator",
              "type": "address"
            },
            {
              "internalType": "bool",
              "name": "isListed",
              "type": "bool"
            }
          ],
          "internalType": "struct NftMarket.NFTItem[]",
          "name": "",
          "type": "tuple[]"
        }
      ],
      "stateMutability": "view",
      "type": "function",
      "constant": true
    },
    {
      "inputs": [
        {
          "internalType": "string",
          "name": "tokenURI",
          "type": "string"
        },
        {
          "internalType": "uint256",
          "name": "price",
          "type": "uint256"
        }
      ],
      "name": "mintToken",
      "outputs": [
        {
          "internalType": "uint256",
          "name": "",
          "type": "uint256"
        }
      ],
      "stateMutability": "payable",
      "type": "function",
      "payable": true
    },
    {
      "inputs": [
        {
          "internalType": "uint256",
          "name": "tokenId",
          "type": "uint256"
        }
      ],
      "name": "buyNft",
      "outputs": [],
      "stateMutability": "payable",
      "type": "function",
      "payable": true
    },
    {
      "inputs": [
        {
          "internalType": "uint256",
          "name": "tokenId",
          "type": "uint256"
        },
        {
          "internalType": "uint256",
          "name": "newPrice",
          "type": "uint256"
        }
      ],
      "name": "placeNftOnSale",
      "outputs": [],
      "stateMutability": "payable",
      "type": "function",
      "payable": true
    }
  ],
  "bytecode": "0x60806040526658d15e176280006008553480156200001c57600080fd5b506040518060400160405280600c81526020017f4372656174757265734e465400000000000000000000000000000000000000008152506040518060400160405280600481526020017f434e46540000000000000000000000000000000000000000000000000000000081525081600090816200009a91906200041d565b508060019081620000ac91906200041d565b505050620000cf620000c3620000d560201b60201c565b620000dd60201b60201c565b62000504565b600033905090565b6000600760009054906101000a900473ffffffffffffffffffffffffffffffffffffffff16905081600760006101000a81548173ffffffffffffffffffffffffffffffffffffffff021916908373ffffffffffffffffffffffffffffffffffffffff1602179055508173ffffffffffffffffffffffffffffffffffffffff168173ffffffffffffffffffffffffffffffffffffffff167f8be0079c531659141344cd1fd0a4f28419497f9722a3daafe3b4186f6b6457e060405160405180910390a35050565b600081519050919050565b7f4e487b7100000000000000000000000000000000000000000000000000000000600052604160045260246000fd5b7f4e487b7100000000000000000000000000000000000000000000000000000000600052602260045260246000fd5b600060028204905060018216806200022557607f821691505b6020821081036200023b576200023a620001dd565b5b50919050565b60008190508160005260206000209050919050565b60006020601f8301049050919050565b600082821b905092915050565b600060088302620002a57fffffffffffffffffffffffffffffffffffffffffffffffffffffffffffffffff8262000266565b620002b1868362000266565b95508019841693508086168417925050509392505050565b6000819050919050565b6000819050919050565b6000620002fe620002f8620002f284620002c9565b620002d3565b620002c9565b9050919050565b6000819050919050565b6200031a83620002dd565b62000332620003298262000305565b84845462000273565b825550505050565b600090565b620003496200033a565b620003568184846200030f565b505050565b5b818110156200037e57620003726000826200033f565b6001810190506200035c565b5050565b601f821115620003cd57620003978162000241565b620003a28462000256565b81016020851015620003b2578190505b620003ca620003c18562000256565b8301826200035b565b50505b505050565b600082821c905092915050565b6000620003f260001984600802620003d2565b1980831691505092915050565b60006200040d8383620003df565b9150826002028217905092915050565b6200042882620001a3565b67ffffffffffffffff811115620004445762000443620001ae565b5b6200045082546200020c565b6200045d82828562000382565b600060209050601f83116001811462000495576000841562000480578287015190505b6200048c8582620003ff565b865550620004fc565b601f198416620004a58662000241565b60005b82811015620004cf57848901518255600182019150602085019450602081019050620004a8565b86831015620004ef5784890151620004eb601f891682620003df565b8355505b6001600288020188555050505b505050505050565b614c4380620005146000396000f3fe6080604052600436106101cd5760003560e01c806370a08231116100f7578063a22cb46511610095578063c87b56dd11610064578063c87b56dd14610685578063ccb4918d146106c2578063e985e9c5146106ed578063f2fde38b1461072a576101cd565b8063a22cb465146105d8578063b88d4fde14610601578063c046372c1461062a578063c78f19f91461065a576101cd565b80637b47ec1a116100d15780637b47ec1a146105305780637c726b69146105595780638da5cb5b1461058257806395d89b41146105ad576101cd565b806370a08231146104b157806370cbcb43146104ee578063715018a614610519576101cd565b8063243adbdd1161016f57806343d32ae71161013e57806343d32ae7146103bd5780634f6ccce7146103fa5780636352211e146104375780636a3ceff914610474576101cd565b8063243adbdd146103105780632f745c591461032c57806336b536be1461036957806342842e0e14610394576101cd565b8063095ea7b3116101ab578063095ea7b31461027757806318160ddd146102a057806321f422e5146102cb57806323b872dd146102e7576101cd565b806301ffc9a7146101d257806306fdde031461020f578063081812fc1461023a575b600080fd5b3480156101de57600080fd5b506101f960048036038101906101f4919061325d565b610753565b60405161020691906132a5565b60405180910390f35b34801561021b57600080fd5b50610224610835565b6040516102319190613350565b60405180910390f35b34801561024657600080fd5b50610261600480360381019061025c91906133a8565b6108c7565b60405161026e9190613416565b60405180910390f35b34801561028357600080fd5b5061029e6004803603810190610299919061345d565b61090d565b005b3480156102ac57600080fd5b506102b5610a24565b6040516102c291906134ac565b60405180910390f35b6102e560048036038101906102e091906134c7565b610a31565b005b3480156102f357600080fd5b5061030e60048036038101906103099190613507565b610bad565b005b61032a600480360381019061032591906133a8565b610c0d565b005b34801561033857600080fd5b50610353600480360381019061034e919061345d565b610d75565b60405161036091906134ac565b60405180910390f35b34801561037557600080fd5b5061037e610e1a565b60405161038b919061368b565b60405180910390f35b3480156103a057600080fd5b506103bb60048036038101906103b69190613507565b610fb4565b005b3480156103c957600080fd5b506103e460048036038101906103df91906137e2565b610fd4565b6040516103f191906132a5565b60405180910390f35b34801561040657600080fd5b50610421600480360381019061041c91906133a8565b611010565b60405161042e91906134ac565b60405180910390f35b34801561044357600080fd5b5061045e600480360381019061045991906133a8565b611081565b60405161046b9190613416565b60405180910390f35b34801561048057600080fd5b5061049b600480360381019061049691906133a8565b611107565b6040516104a89190613880565b60405180910390f35b3480156104bd57600080fd5b506104d860048036038101906104d3919061389b565b6111b9565b6040516104e591906134ac565b60405180910390f35b3480156104fa57600080fd5b50610503611270565b604051610510919061368b565b60405180910390f35b34801561052557600080fd5b5061052e6113d4565b005b34801561053c57600080fd5b50610557600480360381019061055291906133a8565b6113e8565b005b34801561056557600080fd5b50610580600480360381019061057b91906133a8565b6113f4565b005b34801561058e57600080fd5b50610597611449565b6040516105a49190613416565b60405180910390f35b3480156105b957600080fd5b506105c2611473565b6040516105cf9190613350565b60405180910390f35b3480156105e457600080fd5b506105ff60048036038101906105fa91906138f4565b611505565b005b34801561060d57600080fd5b50610628600480360381019061062391906139d5565b61151b565b005b610644600480360381019061063f9190613a58565b61157d565b60405161065191906134ac565b60405180910390f35b34801561066657600080fd5b5061066f61168d565b60405161067c91906134ac565b60405180910390f35b34801561069157600080fd5b506106ac60048036038101906106a791906133a8565b611693565b6040516106b99190613350565b60405180910390f35b3480156106ce57600080fd5b506106d76117a5565b6040516106e491906134ac565b60405180910390f35b3480156106f957600080fd5b50610714600480360381019061070f9190613ab4565b6117b6565b60405161072191906132a5565b60405180910390f35b34801561073657600080fd5b50610751600480360381019061074c919061389b565b61184a565b005b60007f80ac58cd000000000000000000000000000000000000000000000000000000007bffffffffffffffffffffffffffffffffffffffffffffffffffffffff1916827bffffffffffffffffffffffffffffffffffffffffffffffffffffffff1916148061081e57507f5b5e139f000000000000000000000000000000000000000000000000000000007bffffffffffffffffffffffffffffffffffffffffffffffffffffffff1916827bffffffffffffffffffffffffffffffffffffffffffffffffffffffff1916145b8061082e575061082d826118cd565b5b9050919050565b60606000805461084490613b23565b80601f016020809104026020016040519081016040528092919081815260200182805461087090613b23565b80156108bd5780601f10610892576101008083540402835291602001916108bd565b820191906000526020600020905b8154815290600101906020018083116108a057829003601f168201915b5050505050905090565b60006108d282611937565b6004600083815260200190815260200160002060009054906101000a900473ffffffffffffffffffffffffffffffffffffffff169050919050565b600061091882611081565b90508073ffffffffffffffffffffffffffffffffffffffff168373ffffffffffffffffffffffffffffffffffffffff1603610988576040517f08c379a000000000000000000000000000000000000000000000000000000000815260040161097f90613bc6565b60405180910390fd5b8073ffffffffffffffffffffffffffffffffffffffff166109a7611982565b73ffffffffffffffffffffffffffffffffffffffff1614806109d657506109d5816109d0611982565b6117b6565b5b610a15576040517f08c379a0000000000000000000000000000000000000000000000000000000008152600401610a0c90613c58565b60405180910390fd5b610a1f838361198a565b505050565b6000600f80549050905090565b3373ffffffffffffffffffffffffffffffffffffffff16610a5183611081565b73ffffffffffffffffffffffffffffffffffffffff1614610aa7576040517f08c379a0000000000000000000000000000000000000000000000000000000008152600401610a9e90613cc4565b60405180910390fd5b60001515600c600084815260200190815260200160002060020160149054906101000a900460ff16151514610b11576040517f08c379a0000000000000000000000000000000000000000000000000000000008152600401610b0890613d30565b60405180910390fd5b6008543414610b55576040517f08c379a0000000000000000000000000000000000000000000000000000000008152600401610b4c90613dc2565b60405180910390fd5b6001600c600084815260200190815260200160002060020160146101000a81548160ff02191690831515021790555080600c600084815260200190815260200160002060010181905550610ba96009611a43565b5050565b610bbe610bb8611982565b82611a59565b610bfd576040517f08c379a0000000000000000000000000000000000000000000000000000000008152600401610bf490613e54565b60405180910390fd5b610c08838383611aee565b505050565b6000600c60008381526020019081526020016000206001015490506000610c3383611081565b90508073ffffffffffffffffffffffffffffffffffffffff163373ffffffffffffffffffffffffffffffffffffffff1603610ca3576040517f08c379a0000000000000000000000000000000000000000000000000000000008152600401610c9a90613ec0565b60405180910390fd5b813414610ce5576040517f08c379a0000000000000000000000000000000000000000000000000000000008152600401610cdc90613f2c565b60405180910390fd5b6000600c600085815260200190815260200160002060020160146101000a81548160ff021916908315150217905550610d1e6009611de7565b610d29813385611aee565b8073ffffffffffffffffffffffffffffffffffffffff166108fc349081150290604051600060405180830381858888f19350505050158015610d6f573d6000803e3d6000fd5b50505050565b6000610d80836111b9565b8210610dc1576040517f08c379a0000000000000000000000000000000000000000000000000000000008152600401610db890613f98565b60405180910390fd5b600d60008473ffffffffffffffffffffffffffffffffffffffff1673ffffffffffffffffffffffffffffffffffffffff168152602001908152602001600020600083815260200190815260200160002054905092915050565b60606000610e26610a24565b9050600080610e356009611e43565b67ffffffffffffffff811115610e4e57610e4d6136b7565b5b604051908082528060200260200182016040528015610e8757816020015b610e74613154565b815260200190600190039081610e6c5790505b50905060005b83811015610faa576000610ea082611010565b90506000600c60008381526020019081526020016000209050600115158160020160149054906101000a900460ff16151503610f95578060405180608001604052908160008201548152602001600182015481526020016002820160009054906101000a900473ffffffffffffffffffffffffffffffffffffffff1673ffffffffffffffffffffffffffffffffffffffff1673ffffffffffffffffffffffffffffffffffffffff1681526020016002820160149054906101000a900460ff161515151581525050848681518110610f7a57610f79613fb8565b5b6020026020010181905250600185610f929190614016565b94505b50508080610fa29061404a565b915050610e8d565b5080935050505090565b610fcf8383836040518060200160405280600081525061151b565b505050565b600060011515600b83604051610fea91906140ce565b908152602001604051809103902060009054906101000a900460ff161515149050919050565b600061101a610a24565b821061105b576040517f08c379a000000000000000000000000000000000000000000000000000000000815260040161105290613f98565b60405180910390fd5b600f828154811061106f5761106e613fb8565b5b90600052602060002001549050919050565b60008061108d83611e51565b9050600073ffffffffffffffffffffffffffffffffffffffff168173ffffffffffffffffffffffffffffffffffffffff16036110fe576040517f08c379a00000000000000000000000000000000000000000000000000000000081526004016110f590614131565b60405180910390fd5b80915050919050565b61110f613154565b600c600083815260200190815260200160002060405180608001604052908160008201548152602001600182015481526020016002820160009054906101000a900473ffffffffffffffffffffffffffffffffffffffff1673ffffffffffffffffffffffffffffffffffffffff1673ffffffffffffffffffffffffffffffffffffffff1681526020016002820160149054906101000a900460ff1615151515815250509050919050565b60008073ffffffffffffffffffffffffffffffffffffffff168273ffffffffffffffffffffffffffffffffffffffff1603611229576040517f08c379a0000000000000000000000000000000000000000000000000000000008152600401611220906141c3565b60405180910390fd5b600360008373ffffffffffffffffffffffffffffffffffffffff1673ffffffffffffffffffffffffffffffffffffffff168152602001908152602001600020549050919050565b6060600061127d336111b9565b905060008167ffffffffffffffff81111561129b5761129a6136b7565b5b6040519080825280602002602001820160405280156112d457816020015b6112c1613154565b8152602001906001900390816112b95790505b50905060005b828110156113cb5760006112ee3383610d75565b90506000600c600083815260200190815260200160002090508060405180608001604052908160008201548152602001600182015481526020016002820160009054906101000a900473ffffffffffffffffffffffffffffffffffffffff1673ffffffffffffffffffffffffffffffffffffffff1673ffffffffffffffffffffffffffffffffffffffff1681526020016002820160149054906101000a900460ff1615151515815250508484815181106113ab576113aa613fb8565b5b6020026020010181905250505080806113c39061404a565b9150506112da565b50809250505090565b6113dc611e8e565b6113e66000611f0c565b565b6113f181611fd2565b50565b6113fc611e8e565b6000811161143f576040517f08c379a00000000000000000000000000000000000000000000000000000000081526004016114369061422f565b60405180910390fd5b8060088190555050565b6000600760009054906101000a900473ffffffffffffffffffffffffffffffffffffffff16905090565b60606001805461148290613b23565b80601f01602080910402602001604051908101604052809291908181526020018280546114ae90613b23565b80156114fb5780601f106114d0576101008083540402835291602001916114fb565b820191906000526020600020905b8154815290600101906020018083116114de57829003601f168201915b5050505050905090565b611517611510611982565b8383612025565b5050565b61152c611526611982565b83611a59565b61156b576040517f08c379a000000000000000000000000000000000000000000000000000000000815260040161156290613e54565b60405180910390fd5b61157784848484612191565b50505050565b600061158883610fd4565b156115c8576040517f08c379a00000000000000000000000000000000000000000000000000000000081526004016115bf9061429b565b60405180910390fd5b600854341461160c576040517f08c379a000000000000000000000000000000000000000000000000000000000815260040161160390613dc2565b60405180910390fd5b611616600a611a43565b6116206009611a43565b600061162c600a611e43565b905061163833826121ed565b611642818561220b565b61164c8184612278565b6001600b8560405161165e91906140ce565b908152602001604051809103902060006101000a81548160ff0219169083151502179055508091505092915050565b60085481565b606061169e82611937565b60006006600084815260200190815260200160002080546116be90613b23565b80601f01602080910402602001604051908101604052809291908181526020018280546116ea90613b23565b80156117375780601f1061170c57610100808354040283529160200191611737565b820191906000526020600020905b81548152906001019060200180831161171a57829003601f168201915b5050505050905060006117486123c8565b9050600081510361175d5781925050506117a0565b60008251111561179257808260405160200161177a9291906142bb565b604051602081830303815290604052925050506117a0565b61179b846123df565b925050505b919050565b60006117b16009611e43565b905090565b6000600560008473ffffffffffffffffffffffffffffffffffffffff1673ffffffffffffffffffffffffffffffffffffffff16815260200190815260200160002060008373ffffffffffffffffffffffffffffffffffffffff1673ffffffffffffffffffffffffffffffffffffffff16815260200190815260200160002060009054906101000a900460ff16905092915050565b611852611e8e565b600073ffffffffffffffffffffffffffffffffffffffff168173ffffffffffffffffffffffffffffffffffffffff16036118c1576040517f08c379a00000000000000000000000000000000000000000000000000000000081526004016118b890614351565b60405180910390fd5b6118ca81611f0c565b50565b60007f01ffc9a7000000000000000000000000000000000000000000000000000000007bffffffffffffffffffffffffffffffffffffffffffffffffffffffff1916827bffffffffffffffffffffffffffffffffffffffffffffffffffffffff1916149050919050565b61194081612447565b61197f576040517f08c379a000000000000000000000000000000000000000000000000000000000815260040161197690614131565b60405180910390fd5b50565b600033905090565b816004600083815260200190815260200160002060006101000a81548173ffffffffffffffffffffffffffffffffffffffff021916908373ffffffffffffffffffffffffffffffffffffffff160217905550808273ffffffffffffffffffffffffffffffffffffffff166119fd83611081565b73ffffffffffffffffffffffffffffffffffffffff167f8c5be1e5ebec7d5bd14f71427d1e84f3dd0314c0f7b2291e5b200ac8c7c3b92560405160405180910390a45050565b6001816000016000828254019250508190555050565b600080611a6583611081565b90508073ffffffffffffffffffffffffffffffffffffffff168473ffffffffffffffffffffffffffffffffffffffff161480611aa75750611aa681856117b6565b5b80611ae557508373ffffffffffffffffffffffffffffffffffffffff16611acd846108c7565b73ffffffffffffffffffffffffffffffffffffffff16145b91505092915050565b8273ffffffffffffffffffffffffffffffffffffffff16611b0e82611081565b73ffffffffffffffffffffffffffffffffffffffff1614611b64576040517f08c379a0000000000000000000000000000000000000000000000000000000008152600401611b5b906143e3565b60405180910390fd5b600073ffffffffffffffffffffffffffffffffffffffff168273ffffffffffffffffffffffffffffffffffffffff1603611bd3576040517f08c379a0000000000000000000000000000000000000000000000000000000008152600401611bca90614475565b60405180910390fd5b611be08383836001612488565b8273ffffffffffffffffffffffffffffffffffffffff16611c0082611081565b73ffffffffffffffffffffffffffffffffffffffff1614611c56576040517f08c379a0000000000000000000000000000000000000000000000000000000008152600401611c4d906143e3565b60405180910390fd5b6004600082815260200190815260200160002060006101000a81549073ffffffffffffffffffffffffffffffffffffffff02191690556001600360008573ffffffffffffffffffffffffffffffffffffffff1673ffffffffffffffffffffffffffffffffffffffff168152602001908152602001600020600082825403925050819055506001600360008473ffffffffffffffffffffffffffffffffffffffff1673ffffffffffffffffffffffffffffffffffffffff16815260200190815260200160002060008282540192505081905550816002600083815260200190815260200160002060006101000a81548173ffffffffffffffffffffffffffffffffffffffff021916908373ffffffffffffffffffffffffffffffffffffffff160217905550808273ffffffffffffffffffffffffffffffffffffffff168473ffffffffffffffffffffffffffffffffffffffff167fddf252ad1be2c89b69c2b068fc378daa952ba7f163c4a11628f55a4df523b3ef60405160405180910390a4611de2838383600161259c565b505050565b60008160000154905060008111611e33576040517f08c379a0000000000000000000000000000000000000000000000000000000008152600401611e2a906144e1565b60405180910390fd5b6001810382600001819055505050565b600081600001549050919050565b60006002600083815260200190815260200160002060009054906101000a900473ffffffffffffffffffffffffffffffffffffffff169050919050565b611e96611982565b73ffffffffffffffffffffffffffffffffffffffff16611eb4611449565b73ffffffffffffffffffffffffffffffffffffffff1614611f0a576040517f08c379a0000000000000000000000000000000000000000000000000000000008152600401611f019061454d565b60405180910390fd5b565b6000600760009054906101000a900473ffffffffffffffffffffffffffffffffffffffff16905081600760006101000a81548173ffffffffffffffffffffffffffffffffffffffff021916908373ffffffffffffffffffffffffffffffffffffffff1602179055508173ffffffffffffffffffffffffffffffffffffffff168173ffffffffffffffffffffffffffffffffffffffff167f8be0079c531659141344cd1fd0a4f28419497f9722a3daafe3b4186f6b6457e060405160405180910390a35050565b611fdb816125a2565b6000600660008381526020019081526020016000208054611ffb90613b23565b905014612022576006600082815260200190815260200160002060006120219190613194565b5b50565b8173ffffffffffffffffffffffffffffffffffffffff168373ffffffffffffffffffffffffffffffffffffffff1603612093576040517f08c379a000000000000000000000000000000000000000000000000000000000815260040161208a906145b9565b60405180910390fd5b80600560008573ffffffffffffffffffffffffffffffffffffffff1673ffffffffffffffffffffffffffffffffffffffff16815260200190815260200160002060008473ffffffffffffffffffffffffffffffffffffffff1673ffffffffffffffffffffffffffffffffffffffff16815260200190815260200160002060006101000a81548160ff0219169083151502179055508173ffffffffffffffffffffffffffffffffffffffff168373ffffffffffffffffffffffffffffffffffffffff167f17307eab39ab6107e8899845ad3d59bd9653f200f220920489ca2b5937696c318360405161218491906132a5565b60405180910390a3505050565b61219c848484611aee565b6121a8848484846126f0565b6121e7576040517f08c379a00000000000000000000000000000000000000000000000000000000081526004016121de9061464b565b60405180910390fd5b50505050565b612207828260405180602001604052806000815250612877565b5050565b61221482612447565b612253576040517f08c379a000000000000000000000000000000000000000000000000000000000815260040161224a906146dd565b60405180910390fd5b8060066000848152602001908152602001600020908161227391906148a9565b505050565b600081116122bb576040517f08c379a00000000000000000000000000000000000000000000000000000000081526004016122b29061422f565b60405180910390fd5b60405180608001604052808381526020018281526020013373ffffffffffffffffffffffffffffffffffffffff16815260200160011515815250600c6000848152602001908152602001600020600082015181600001556020820151816001015560408201518160020160006101000a81548173ffffffffffffffffffffffffffffffffffffffff021916908373ffffffffffffffffffffffffffffffffffffffff16021790555060608201518160020160146101000a81548160ff0219169083151502179055509050507f43f35c7892cef3db6314a5b129e161ca0731bb9e4a5d4f7244b605bb7b65b11582823360016040516123bc949392919061497b565b60405180910390a15050565b606060405180602001604052806000815250905090565b60606123ea82611937565b60006123f46123c8565b90506000815111612414576040518060200160405280600081525061243f565b8061241e846128d2565b60405160200161242f9291906142bb565b6040516020818303038152906040525b915050919050565b60008073ffffffffffffffffffffffffffffffffffffffff1661246983611e51565b73ffffffffffffffffffffffffffffffffffffffff1614159050919050565b612494848484846129a0565b600073ffffffffffffffffffffffffffffffffffffffff168473ffffffffffffffffffffffffffffffffffffffff16036124d6576124d182612ac6565b612515565b8273ffffffffffffffffffffffffffffffffffffffff168473ffffffffffffffffffffffffffffffffffffffff1614612514576125138483612b0f565b5b5b600073ffffffffffffffffffffffffffffffffffffffff168373ffffffffffffffffffffffffffffffffffffffff16036125575761255282612c7c565b612596565b8373ffffffffffffffffffffffffffffffffffffffff168373ffffffffffffffffffffffffffffffffffffffff1614612595576125948383612d42565b5b5b50505050565b50505050565b60006125ad82611081565b90506125bd816000846001612488565b6125c682611081565b90506004600083815260200190815260200160002060006101000a81549073ffffffffffffffffffffffffffffffffffffffff02191690556001600360008373ffffffffffffffffffffffffffffffffffffffff1673ffffffffffffffffffffffffffffffffffffffff168152602001908152602001600020600082825403925050819055506002600083815260200190815260200160002060006101000a81549073ffffffffffffffffffffffffffffffffffffffff021916905581600073ffffffffffffffffffffffffffffffffffffffff168273ffffffffffffffffffffffffffffffffffffffff167fddf252ad1be2c89b69c2b068fc378daa952ba7f163c4a11628f55a4df523b3ef60405160405180910390a46126ec81600084600161259c565b5050565b60006127118473ffffffffffffffffffffffffffffffffffffffff16612dc1565b1561286a578373ffffffffffffffffffffffffffffffffffffffff1663150b7a0261273a611982565b8786866040518563ffffffff1660e01b815260040161275c9493929190614a15565b6020604051808303816000875af192505050801561279857506040513d601f19601f820116820180604052508101906127959190614a76565b60015b61281a573d80600081146127c8576040519150601f19603f3d011682016040523d82523d6000602084013e6127cd565b606091505b506000815103612812576040517f08c379a00000000000000000000000000000000000000000000000000000000081526004016128099061464b565b60405180910390fd5b805181602001fd5b63150b7a0260e01b7bffffffffffffffffffffffffffffffffffffffffffffffffffffffff1916817bffffffffffffffffffffffffffffffffffffffffffffffffffffffff19161491505061286f565b600190505b949350505050565b6128818383612de4565b61288e60008484846126f0565b6128cd576040517f08c379a00000000000000000000000000000000000000000000000000000000081526004016128c49061464b565b60405180910390fd5b505050565b6060600060016128e184613001565b01905060008167ffffffffffffffff811115612900576128ff6136b7565b5b6040519080825280601f01601f1916602001820160405280156129325781602001600182028036833780820191505090505b509050600082602001820190505b600115612995578080600190039150507f3031323334353637383961626364656600000000000000000000000000000000600a86061a8153600a858161298957612988614aa3565b5b04945060008503612940575b819350505050919050565b6001811115612ac057600073ffffffffffffffffffffffffffffffffffffffff168473ffffffffffffffffffffffffffffffffffffffff1614612a345780600360008673ffffffffffffffffffffffffffffffffffffffff1673ffffffffffffffffffffffffffffffffffffffff1681526020019081526020016000206000828254612a2c9190614ad2565b925050819055505b600073ffffffffffffffffffffffffffffffffffffffff168373ffffffffffffffffffffffffffffffffffffffff1614612abf5780600360008573ffffffffffffffffffffffffffffffffffffffff1673ffffffffffffffffffffffffffffffffffffffff1681526020019081526020016000206000828254612ab79190614016565b925050819055505b5b50505050565b600f805490506010600083815260200190815260200160002081905550600f81908060018154018082558091505060019003906000526020600020016000909190919091505550565b60006001612b1c846111b9565b612b269190614ad2565b90506000600e6000838152602001908152602001600020549050818114612c0b576000600d60008673ffffffffffffffffffffffffffffffffffffffff1673ffffffffffffffffffffffffffffffffffffffff168152602001908152602001600020600084815260200190815260200160002054905080600d60008773ffffffffffffffffffffffffffffffffffffffff1673ffffffffffffffffffffffffffffffffffffffff16815260200190815260200160002060008481526020019081526020016000208190555081600e600083815260200190815260200160002081905550505b600e600084815260200190815260200160002060009055600d60008573ffffffffffffffffffffffffffffffffffffffff1673ffffffffffffffffffffffffffffffffffffffff16815260200190815260200160002060008381526020019081526020016000206000905550505050565b60006001600f80549050612c909190614ad2565b905060006010600084815260200190815260200160002054905060006010600084815260200190815260200160002054905080600f8381548110612cd757612cd6613fb8565b5b90600052602060002001819055508160106000838152602001908152602001600020819055506010600085815260200190815260200160002060009055600f805480612d2657612d25614b06565b5b6001900381819060005260206000200160009055905550505050565b6000612d4d836111b9565b905081600d60008573ffffffffffffffffffffffffffffffffffffffff1673ffffffffffffffffffffffffffffffffffffffff16815260200190815260200160002060008381526020019081526020016000208190555080600e600084815260200190815260200160002081905550505050565b6000808273ffffffffffffffffffffffffffffffffffffffff163b119050919050565b600073ffffffffffffffffffffffffffffffffffffffff168273ffffffffffffffffffffffffffffffffffffffff1603612e53576040517f08c379a0000000000000000000000000000000000000000000000000000000008152600401612e4a90614b81565b60405180910390fd5b612e5c81612447565b15612e9c576040517f08c379a0000000000000000000000000000000000000000000000000000000008152600401612e9390614bed565b60405180910390fd5b612eaa600083836001612488565b612eb381612447565b15612ef3576040517f08c379a0000000000000000000000000000000000000000000000000000000008152600401612eea90614bed565b60405180910390fd5b6001600360008473ffffffffffffffffffffffffffffffffffffffff1673ffffffffffffffffffffffffffffffffffffffff16815260200190815260200160002060008282540192505081905550816002600083815260200190815260200160002060006101000a81548173ffffffffffffffffffffffffffffffffffffffff021916908373ffffffffffffffffffffffffffffffffffffffff160217905550808273ffffffffffffffffffffffffffffffffffffffff16600073ffffffffffffffffffffffffffffffffffffffff167fddf252ad1be2c89b69c2b068fc378daa952ba7f163c4a11628f55a4df523b3ef60405160405180910390a4612ffd60008383600161259c565b5050565b600080600090507a184f03e93ff9f4daa797ed6e38ed64bf6a1f010000000000000000831061305f577a184f03e93ff9f4daa797ed6e38ed64bf6a1f010000000000000000838161305557613054614aa3565b5b0492506040810190505b6d04ee2d6d415b85acef8100000000831061309c576d04ee2d6d415b85acef8100000000838161309257613091614aa3565b5b0492506020810190505b662386f26fc1000083106130cb57662386f26fc1000083816130c1576130c0614aa3565b5b0492506010810190505b6305f5e10083106130f4576305f5e10083816130ea576130e9614aa3565b5b0492506008810190505b612710831061311957612710838161310f5761310e614aa3565b5b0492506004810190505b6064831061313c576064838161313257613131614aa3565b5b0492506002810190505b600a831061314b576001810190505b80915050919050565b60405180608001604052806000815260200160008152602001600073ffffffffffffffffffffffffffffffffffffffff1681526020016000151581525090565b5080546131a090613b23565b6000825580601f106131b257506131d1565b601f0160209004906000526020600020908101906131d091906131d4565b5b50565b5b808211156131ed5760008160009055506001016131d5565b5090565b6000604051905090565b600080fd5b600080fd5b60007fffffffff0000000000000000000000000000000000000000000000000000000082169050919050565b61323a81613205565b811461324557600080fd5b50565b60008135905061325781613231565b92915050565b600060208284031215613273576132726131fb565b5b600061328184828501613248565b91505092915050565b60008115159050919050565b61329f8161328a565b82525050565b60006020820190506132ba6000830184613296565b92915050565b600081519050919050565b600082825260208201905092915050565b60005b838110156132fa5780820151818401526020810190506132df565b60008484015250505050565b6000601f19601f8301169050919050565b6000613322826132c0565b61332c81856132cb565b935061333c8185602086016132dc565b61334581613306565b840191505092915050565b6000602082019050818103600083015261336a8184613317565b905092915050565b6000819050919050565b61338581613372565b811461339057600080fd5b50565b6000813590506133a28161337c565b92915050565b6000602082840312156133be576133bd6131fb565b5b60006133cc84828501613393565b91505092915050565b600073ffffffffffffffffffffffffffffffffffffffff82169050919050565b6000613400826133d5565b9050919050565b613410816133f5565b82525050565b600060208201905061342b6000830184613407565b92915050565b61343a816133f5565b811461344557600080fd5b50565b60008135905061345781613431565b92915050565b60008060408385031215613474576134736131fb565b5b600061348285828601613448565b925050602061349385828601613393565b9150509250929050565b6134a681613372565b82525050565b60006020820190506134c1600083018461349d565b92915050565b600080604083850312156134de576134dd6131fb565b5b60006134ec85828601613393565b92505060206134fd85828601613393565b9150509250929050565b6000806000606084860312156135205761351f6131fb565b5b600061352e86828701613448565b935050602061353f86828701613448565b925050604061355086828701613393565b9150509250925092565b600081519050919050565b600082825260208201905092915050565b6000819050602082019050919050565b61358f81613372565b82525050565b61359e816133f5565b82525050565b6135ad8161328a565b82525050565b6080820160008201516135c96000850182613586565b5060208201516135dc6020850182613586565b5060408201516135ef6040850182613595565b50606082015161360260608501826135a4565b50505050565b600061361483836135b3565b60808301905092915050565b6000602082019050919050565b60006136388261355a565b6136428185613565565b935061364d83613576565b8060005b8381101561367e5781516136658882613608565b975061367083613620565b925050600181019050613651565b5085935050505092915050565b600060208201905081810360008301526136a5818461362d565b905092915050565b600080fd5b600080fd5b7f4e487b7100000000000000000000000000000000000000000000000000000000600052604160045260246000fd5b6136ef82613306565b810181811067ffffffffffffffff8211171561370e5761370d6136b7565b5b80604052505050565b60006137216131f1565b905061372d82826136e6565b919050565b600067ffffffffffffffff82111561374d5761374c6136b7565b5b61375682613306565b9050602081019050919050565b82818337600083830152505050565b600061378561378084613732565b613717565b9050828152602081018484840111156137a1576137a06136b2565b5b6137ac848285613763565b509392505050565b600082601f8301126137c9576137c86136ad565b5b81356137d9848260208601613772565b91505092915050565b6000602082840312156137f8576137f76131fb565b5b600082013567ffffffffffffffff81111561381657613815613200565b5b613822848285016137b4565b91505092915050565b6080820160008201516138416000850182613586565b5060208201516138546020850182613586565b5060408201516138676040850182613595565b50606082015161387a60608501826135a4565b50505050565b6000608082019050613895600083018461382b565b92915050565b6000602082840312156138b1576138b06131fb565b5b60006138bf84828501613448565b91505092915050565b6138d18161328a565b81146138dc57600080fd5b50565b6000813590506138ee816138c8565b92915050565b6000806040838503121561390b5761390a6131fb565b5b600061391985828601613448565b925050602061392a858286016138df565b9150509250929050565b600067ffffffffffffffff82111561394f5761394e6136b7565b5b61395882613306565b9050602081019050919050565b600061397861397384613934565b613717565b905082815260208101848484011115613994576139936136b2565b5b61399f848285613763565b509392505050565b600082601f8301126139bc576139bb6136ad565b5b81356139cc848260208601613965565b91505092915050565b600080600080608085870312156139ef576139ee6131fb565b5b60006139fd87828801613448565b9450506020613a0e87828801613448565b9350506040613a1f87828801613393565b925050606085013567ffffffffffffffff811115613a4057613a3f613200565b5b613a4c878288016139a7565b91505092959194509250565b60008060408385031215613a6f57613a6e6131fb565b5b600083013567ffffffffffffffff811115613a8d57613a8c613200565b5b613a99858286016137b4565b9250506020613aaa85828601613393565b9150509250929050565b60008060408385031215613acb57613aca6131fb565b5b6000613ad985828601613448565b9250506020613aea85828601613448565b9150509250929050565b7f4e487b7100000000000000000000000000000000000000000000000000000000600052602260045260246000fd5b60006002820490506001821680613b3b57607f821691505b602082108103613b4e57613b4d613af4565b5b50919050565b7f4552433732313a20617070726f76616c20746f2063757272656e74206f776e6560008201527f7200000000000000000000000000000000000000000000000000000000000000602082015250565b6000613bb06021836132cb565b9150613bbb82613b54565b604082019050919050565b60006020820190508181036000830152613bdf81613ba3565b9050919050565b7f4552433732313a20617070726f76652063616c6c6572206973206e6f7420746f60008201527f6b656e206f776e6572206f7220617070726f76656420666f7220616c6c000000602082015250565b6000613c42603d836132cb565b9150613c4d82613be6565b604082019050919050565b60006020820190508181036000830152613c7181613c35565b9050919050565b7f596f7520617265206e6f74206f776e6572206f662074686973204e4654000000600082015250565b6000613cae601d836132cb565b9150613cb982613c78565b602082019050919050565b60006020820190508181036000830152613cdd81613ca1565b9050919050565b7f4974656d20697320616c7265616479206f6e2073616665000000000000000000600082015250565b6000613d1a6017836132cb565b9150613d2582613ce4565b602082019050919050565b60006020820190508181036000830152613d4981613d0d565b9050919050565b7f5072696365206d75737420626520657175616c20746f206c697374696e67207060008201527f7269636500000000000000000000000000000000000000000000000000000000602082015250565b6000613dac6024836132cb565b9150613db782613d50565b604082019050919050565b60006020820190508181036000830152613ddb81613d9f565b9050919050565b7f4552433732313a2063616c6c6572206973206e6f7420746f6b656e206f776e6560008201527f72206f7220617070726f76656400000000000000000000000000000000000000602082015250565b6000613e3e602d836132cb565b9150613e4982613de2565b604082019050919050565b60006020820190508181036000830152613e6d81613e31565b9050919050565b7f596f7520616c726561647920776f6e2074686973204e46540000000000000000600082015250565b6000613eaa6018836132cb565b9150613eb582613e74565b602082019050919050565b60006020820190508181036000830152613ed981613e9d565b9050919050565b7f506c656173652c2073756d626974207468652061736b696e6720707269636500600082015250565b6000613f16601f836132cb565b9150613f2182613ee0565b602082019050919050565b60006020820190508181036000830152613f4581613f09565b9050919050565b7f496e646578206f7574206f662074686520626f756e6473000000000000000000600082015250565b6000613f826017836132cb565b9150613f8d82613f4c565b602082019050919050565b60006020820190508181036000830152613fb181613f75565b9050919050565b7f4e487b7100000000000000000000000000000000000000000000000000000000600052603260045260246000fd5b7f4e487b7100000000000000000000000000000000000000000000000000000000600052601160045260246000fd5b600061402182613372565b915061402c83613372565b925082820190508082111561404457614043613fe7565b5b92915050565b600061405582613372565b91507fffffffffffffffffffffffffffffffffffffffffffffffffffffffffffffffff820361408757614086613fe7565b5b600182019050919050565b600081905092915050565b60006140a8826132c0565b6140b28185614092565b93506140c28185602086016132dc565b80840191505092915050565b60006140da828461409d565b915081905092915050565b7f4552433732313a20696e76616c696420746f6b656e2049440000000000000000600082015250565b600061411b6018836132cb565b9150614126826140e5565b602082019050919050565b6000602082019050818103600083015261414a8161410e565b9050919050565b7f4552433732313a2061646472657373207a65726f206973206e6f74206120766160008201527f6c6964206f776e65720000000000000000000000000000000000000000000000602082015250565b60006141ad6029836132cb565b91506141b882614151565b604082019050919050565b600060208201905081810360008301526141dc816141a0565b9050919050565b7f5072696365206d757374206265206174206c6561737420312077656900000000600082015250565b6000614219601c836132cb565b9150614224826141e3565b602082019050919050565b600060208201905081810360008301526142488161420c565b9050919050565b7f546f6b656e2055524920616c7265616479206578697374730000000000000000600082015250565b60006142856018836132cb565b91506142908261424f565b602082019050919050565b600060208201905081810360008301526142b481614278565b9050919050565b60006142c7828561409d565b91506142d3828461409d565b91508190509392505050565b7f4f776e61626c653a206e6577206f776e657220697320746865207a65726f206160008201527f6464726573730000000000000000000000000000000000000000000000000000602082015250565b600061433b6026836132cb565b9150614346826142df565b604082019050919050565b6000602082019050818103600083015261436a8161432e565b9050919050565b7f4552433732313a207472616e736665722066726f6d20696e636f72726563742060008201527f6f776e6572000000000000000000000000000000000000000000000000000000602082015250565b60006143cd6025836132cb565b91506143d882614371565b604082019050919050565b600060208201905081810360008301526143fc816143c0565b9050919050565b7f4552433732313a207472616e7366657220746f20746865207a65726f2061646460008201527f7265737300000000000000000000000000000000000000000000000000000000602082015250565b600061445f6024836132cb565b915061446a82614403565b604082019050919050565b6000602082019050818103600083015261448e81614452565b9050919050565b7f436f756e7465723a2064656372656d656e74206f766572666c6f770000000000600082015250565b60006144cb601b836132cb565b91506144d682614495565b602082019050919050565b600060208201905081810360008301526144fa816144be565b9050919050565b7f4f776e61626c653a2063616c6c6572206973206e6f7420746865206f776e6572600082015250565b60006145376020836132cb565b915061454282614501565b602082019050919050565b600060208201905081810360008301526145668161452a565b9050919050565b7f4552433732313a20617070726f766520746f2063616c6c657200000000000000600082015250565b60006145a36019836132cb565b91506145ae8261456d565b602082019050919050565b600060208201905081810360008301526145d281614596565b9050919050565b7f4552433732313a207472616e7366657220746f206e6f6e20455243373231526560008201527f63656976657220696d706c656d656e7465720000000000000000000000000000602082015250565b60006146356032836132cb565b9150614640826145d9565b604082019050919050565b6000602082019050818103600083015261466481614628565b9050919050565b7f45524337323155524953746f726167653a2055524920736574206f66206e6f6e60008201527f6578697374656e7420746f6b656e000000000000000000000000000000000000602082015250565b60006146c7602e836132cb565b91506146d28261466b565b604082019050919050565b600060208201905081810360008301526146f6816146ba565b9050919050565b60008190508160005260206000209050919050565b60006020601f8301049050919050565b600082821b905092915050565b60006008830261475f7fffffffffffffffffffffffffffffffffffffffffffffffffffffffffffffffff82614722565b6147698683614722565b95508019841693508086168417925050509392505050565b6000819050919050565b60006147a66147a161479c84613372565b614781565b613372565b9050919050565b6000819050919050565b6147c08361478b565b6147d46147cc826147ad565b84845461472f565b825550505050565b600090565b6147e96147dc565b6147f48184846147b7565b505050565b5b818110156148185761480d6000826147e1565b6001810190506147fa565b5050565b601f82111561485d5761482e816146fd565b61483784614712565b81016020851015614846578190505b61485a61485285614712565b8301826147f9565b50505b505050565b600082821c905092915050565b600061488060001984600802614862565b1980831691505092915050565b6000614899838361486f565b9150826002028217905092915050565b6148b2826132c0565b67ffffffffffffffff8111156148cb576148ca6136b7565b5b6148d58254613b23565b6148e082828561481c565b600060209050601f8311600181146149135760008415614901578287015190505b61490b858261488d565b865550614973565b601f198416614921866146fd565b60005b8281101561494957848901518255600182019150602085019450602081019050614924565b868310156149665784890151614962601f89168261486f565b8355505b6001600288020188555050505b505050505050565b6000608082019050614990600083018761349d565b61499d602083018661349d565b6149aa6040830185613407565b6149b76060830184613296565b95945050505050565b600081519050919050565b600082825260208201905092915050565b60006149e7826149c0565b6149f181856149cb565b9350614a018185602086016132dc565b614a0a81613306565b840191505092915050565b6000608082019050614a2a6000830187613407565b614a376020830186613407565b614a44604083018561349d565b8181036060830152614a5681846149dc565b905095945050505050565b600081519050614a7081613231565b92915050565b600060208284031215614a8c57614a8b6131fb565b5b6000614a9a84828501614a61565b91505092915050565b7f4e487b7100000000000000000000000000000000000000000000000000000000600052601260045260246000fd5b6000614add82613372565b9150614ae883613372565b9250828203905081811115614b0057614aff613fe7565b5b92915050565b7f4e487b7100000000000000000000000000000000000000000000000000000000600052603160045260246000fd5b7f4552433732313a206d696e7420746f20746865207a65726f2061646472657373600082015250565b6000614b6b6020836132cb565b9150614b7682614b35565b602082019050919050565b60006020820190508181036000830152614b9a81614b5e565b9050919050565b7f4552433732313a20746f6b656e20616c7265616479206d696e74656400000000600082015250565b6000614bd7601c836132cb565b9150614be282614ba1565b602082019050919050565b60006020820190508181036000830152614c0681614bca565b905091905056fea26469706673582212203aec3dca8e3eeeba4be1196145bd91a398bcf756ef26f3a1d313d73457e67eaf64736f6c63430008120033",
  "immutableReferences": {},
  "source": "// SPDX-License-Identifier: MIT\npragma solidity >=0.4.22 <0.9.0;\nimport \"@openzeppelin/contracts/token/ERC721/extensions/ERC721URIStorage.sol\";\nimport \"@openzeppelin/contracts/utils/Counters.sol\";\nimport \"@openzeppelin/contracts/access/Ownable.sol\";\n\ncontract NftMarket is ERC721URIStorage, Ownable {\n    using Counters for Counters.Counter;\n\n    struct NFTItem {\n        uint tokenId;\n        uint price;\n        address creator;\n        bool isListed;\n    }\n\n    uint public listingPrice = 0.025 ether;\n\n    Counters.Counter private _listedItems;\n    Counters.Counter private _tokenIds;\n\n    mapping(string => bool) private _usedTokenURIs;\n    mapping(uint => NFTItem) private _idToNFTItem;\n\n    // {\n    //     0x2c : {\n    //         0: 1, //index: tokenId\n    //         1: 2, //index: tokenId\n    //         2: 3, //index: tokenId\n    //     }\n    // }\n    mapping(address => mapping(uint => uint)) private _ownedTokens;\n    // {\n    //     0: 1, //tokenId: index\n    //     1: 2, //tokenId: index\n    //     2: 3, //tokenId: index\n    // }\n    mapping(uint => uint) private _idToOwnedIndex;\n\n    uint256[] private _allNfts; // all tokenIds in array\n    mapping(uint => uint) private _idToNftIndex;\n\n    event NFTItemCreated (\n        uint tokenId,\n        uint price,\n        address creator,\n        bool isListed\n    );\n\n    constructor() ERC721('CreaturesNFT', \"CNFT\") { // 1 - collections of NFTS, 2 - token name\n    }\n\n    function setListingPrice(uint newPrice) external onlyOwner {\n        require(newPrice > 0, \"Price must be at least 1 wei\");\n        listingPrice = newPrice;\n    }\n\n    function getNFTItem(uint tokenId) public view returns (NFTItem memory) {\n        return _idToNFTItem[tokenId];\n    }\n\n    function listedItemsCount() public view returns (uint) {\n        return _listedItems.current();\n    }\n\n    function totalSupply() public view returns (uint) {\n        return _allNfts.length;\n    }\n\n    function tokenByIndex(uint index) public view returns (uint) {\n        require(index < totalSupply(), \"Index out of the bounds\");\n        return _allNfts[index];\n    }\n\n    function tokenOfOwnerByIndex(address owner, uint index) public view returns (uint) {\n        require(index < ERC721.balanceOf(owner), \"Index out of the bounds\");\n        return _ownedTokens[owner][index];\n    }\n\n    function tokenURIExists(string memory tokenURI) public view returns (bool) {\n        return _usedTokenURIs[tokenURI] == true;\n    }\n\n    function burnToken(uint tokenId) public {\n        _burn(tokenId);\n    }\n\n    function getAllNftsOnSale() public view returns (NFTItem[] memory) {\n        uint allItemsCount = totalSupply();\n        uint currentIndex = 0;\n        NFTItem[] memory items = new NFTItem[](_listedItems.current());\n\n        for (uint i = 0; i < allItemsCount; i++) {\n            uint tokenId = tokenByIndex(i);\n            NFTItem storage item = _idToNFTItem[tokenId];\n\n            if (item.isListed == true) {\n                items[currentIndex] = item;\n                currentIndex += 1;\n            }\n        }\n\n        return items;\n    }\n\n    function getOwnedNfts() public view returns (NFTItem[] memory) {\n        uint ownedItemsCount = ERC721.balanceOf(msg.sender);\n        NFTItem[] memory items = new NFTItem[](ownedItemsCount);\n\n        for (uint i = 0; i < ownedItemsCount; i++) {\n            uint tokenId = tokenOfOwnerByIndex(msg.sender, i);\n            NFTItem storage item = _idToNFTItem[tokenId];\n            items[i] = item;\n        }\n\n        return items;\n    }\n\n    function mintToken(string memory tokenURI, uint price) public payable returns (uint) {\n        require(!tokenURIExists(tokenURI), \"Token URI already exists\");\n        require(msg.value == listingPrice, \"Price must be equal to listing price\");\n\n        _tokenIds.increment();\n        _listedItems.increment();\n\n        uint newTokenId = _tokenIds.current();\n\n        _safeMint(msg.sender, newTokenId);\n        _setTokenURI(newTokenId, tokenURI);\n        _createNFTItem(newTokenId, price);\n        _usedTokenURIs[tokenURI] = true;\n\n        return newTokenId;\n    }\n\n    function buyNft(uint tokenId)  public payable {\n        uint price = _idToNFTItem[tokenId].price;\n        address owner = ERC721.ownerOf(tokenId);\n\n        require(msg.sender != owner, \"You already won this NFT\");\n        require(msg.value == price, \"Please, sumbit the asking price\");\n\n        _idToNFTItem[tokenId].isListed = false;\n        _listedItems.decrement();\n\n        _transfer(owner, msg.sender, tokenId);\n        payable(owner).transfer(msg.value);\n    }\n\n    function placeNftOnSale(uint tokenId, uint newPrice) public payable  {\n        require(ERC721.ownerOf(tokenId) == msg.sender, \"You are not owner of this NFT\");\n        require(_idToNFTItem[tokenId].isListed == false, \"Item is already on safe\");\n        require(msg.value == listingPrice, \"Price must be equal to listing price\");\n\n        _idToNFTItem[tokenId].isListed = true;\n        _idToNFTItem[tokenId].price = newPrice;\n        _listedItems.increment();\n    }\n\n    function _createNFTItem(uint tokenId, uint price) private {\n        require(price > 0, \"Price must be at least 1 wei\");\n\n        _idToNFTItem[tokenId] = NFTItem(\n            tokenId,\n            price,\n            msg.sender,\n            true\n        );\n\n        emit NFTItemCreated(tokenId, price,  msg.sender, true);\n    }\n\n    function _beforeTokenTransfer(address from, address to, uint tokenId, uint batchSize) internal virtual override {\n        super._beforeTokenTransfer(from, to, tokenId, batchSize);\n\n        // minting token\n        if (from == address(0)) {\n            _addTokenToAllTokensEnumeration(tokenId);\n        } else if (from != to) {\n            _removeTokenFromOwnerEnumeration(from, tokenId);\n        }\n\n        if (to == address(0)) {\n            _removeTokenFromAllTokensEnumeration(tokenId);\n        } else if (to != from) {\n            _addTokenToOwnerEnumeration(to, tokenId);\n        }\n    }\n\n    function _addTokenToAllTokensEnumeration(uint tokenId) private {\n        _idToNftIndex[tokenId] = _allNfts.length;\n        _allNfts.push(tokenId);\n    }\n\n    function _addTokenToOwnerEnumeration(address to, uint tokenId) private {\n        uint length = ERC721.balanceOf(to);\n        _ownedTokens[to][length] = tokenId;\n        _idToOwnedIndex[tokenId] = length;\n    }\n    function _removeTokenFromOwnerEnumeration(address from, uint tokenId) private {\n        // {\n            //     0x2c : {\n            //         0: 1, //index: tokenId || 1:0 tokenId:index\n            //         1: 2, //index: tokenId || 2:1 tokenId:index\n            //         2: 3, //index: tokenId || 3:2 tokenId:index\n            //     }\n        // }\n       \n        uint lastTokenIndex = ERC721.balanceOf(from) - 1; // 2\n        uint tokenIndex = _idToOwnedIndex[lastTokenIndex]; // 1\n\n        if (tokenIndex != lastTokenIndex) {\n            uint lastTokenId = _ownedTokens[from][lastTokenIndex]; // 3\n\n            _ownedTokens[from][tokenIndex] = lastTokenId;\n            _idToOwnedIndex[lastTokenId] = tokenIndex;\n        }\n\n        delete _idToOwnedIndex[tokenId];\n        delete _ownedTokens[from][lastTokenIndex];\n\n        // {\n            //     0x2c : {\n            //         0: 1, //index: tokenId || 1:0 tokenId:index\n            //         1: 2 => 3, //index: tokenId || \n            //                                     || 3:2 => 1 tokenId:index\n            //     }\n        // }\n    }\n\n    function _removeTokenFromAllTokensEnumeration(uint tokenId) private {\n        uint lastTokenIndex = _allNfts.length - 1;\n        uint tokenIndex = _idToNftIndex[tokenId];\n        uint lastTokenId = _idToNftIndex[lastTokenIndex];\n \n        _allNfts[tokenIndex] = lastTokenId;\n        _idToNftIndex[lastTokenId] = tokenIndex;\n\n        delete _idToNftIndex[tokenId];\n        _allNfts.pop();\n    }\n}\n",
  "sourcePath": "/Users/victor/Desktop/work/nft/nft-marketplace/contracts/NftMarket.sol",
  "compiler": {
    "name": "solc",
    "version": "0.8.18+commit.87f61d96.Emscripten.clang"
  },
  "schemaVersion": "3.4.11",
  "updatedAt": "2023-02-12T14:22:43.949Z",
  "networkType": "ethereum",
  "devdoc": {
    "events": {
      "Approval(address,address,uint256)": {
        "details": "Emitted when `owner` enables `approved` to manage the `tokenId` token."
      },
      "ApprovalForAll(address,address,bool)": {
        "details": "Emitted when `owner` enables or disables (`approved`) `operator` to manage all of its assets."
      },
      "Transfer(address,address,uint256)": {
        "details": "Emitted when `tokenId` token is transferred from `from` to `to`."
      }
    },
    "kind": "dev",
    "methods": {
      "approve(address,uint256)": {
        "details": "See {IERC721-approve}."
      },
      "balanceOf(address)": {
        "details": "See {IERC721-balanceOf}."
      },
      "getApproved(uint256)": {
        "details": "See {IERC721-getApproved}."
      },
      "isApprovedForAll(address,address)": {
        "details": "See {IERC721-isApprovedForAll}."
      },
      "name()": {
        "details": "See {IERC721Metadata-name}."
      },
      "owner()": {
        "details": "Returns the address of the current owner."
      },
      "ownerOf(uint256)": {
        "details": "See {IERC721-ownerOf}."
      },
      "renounceOwnership()": {
        "details": "Leaves the contract without owner. It will not be possible to call `onlyOwner` functions anymore. Can only be called by the current owner. NOTE: Renouncing ownership will leave the contract without an owner, thereby removing any functionality that is only available to the owner."
      },
      "safeTransferFrom(address,address,uint256)": {
        "details": "See {IERC721-safeTransferFrom}."
      },
      "safeTransferFrom(address,address,uint256,bytes)": {
        "details": "See {IERC721-safeTransferFrom}."
      },
      "setApprovalForAll(address,bool)": {
        "details": "See {IERC721-setApprovalForAll}."
      },
      "supportsInterface(bytes4)": {
        "details": "See {IERC165-supportsInterface}."
      },
      "symbol()": {
        "details": "See {IERC721Metadata-symbol}."
      },
      "tokenURI(uint256)": {
        "details": "See {IERC721Metadata-tokenURI}."
      },
      "transferFrom(address,address,uint256)": {
        "details": "See {IERC721-transferFrom}."
      },
      "transferOwnership(address)": {
        "details": "Transfers ownership of the contract to a new account (`newOwner`). Can only be called by the current owner."
      }
    },
    "version": 1
  },
  "userdoc": {
    "kind": "user",
    "methods": {},
    "version": 1
  }
}